:020000040800F2
:1000000018060020AD010008652F0008172500081C
:10001000612F000821060008C53800080000000014
:10002000000000000000000000000000BD2F0008DC
:100030002506000800000000692F0008BF2F0008F7
:10004000C7010008C7010008C7010008C701000870
:10005000C7010008C7010008C7010008C701000860
:10006000C7010008C7010008C7010008C701000850
:10007000C7010008C7010008C7010008C701000840
:10008000C7010008C7010008C70100080000000000
:10009000000000000000000000000000C701000890
:1000A000C7010008C7010008C7010008C701000810
:1000B000C7010008C7010008C7010008C701000800
:1000C000C7010008C7010008C7010008C7010008F0
:1000D000C7010008B5380008C7010008000000008B
:1000E000C7010008C7010008C701000800000000A0
:1000F000000000000000000000000000C701000830
:1001000000000000C7010008C7010008C70100087F
:1001100000000000000000000000000000000000DF
:10012000C7010008C7010008C7010008C70100088F
:10013000C7010008000000000000000000000000EF
:10014000000000000000000000000000C7010008DF
:10015000C7010008C7010008C7010008C70100085F
:10016000C7010008C70100080000000000000000EF
:10017000000000000000000000000000000000007F
:1001800000000000C701000800000000000000009F
:10019000C7010008C7010008DFF80CD000F02EFAF4
:1001A000004800470D420008180600200648804716
:1001B00006480047FEE7FEE7FEE7FEE7FEE7FEE74C
:1001C000FEE7FEE7FEE7FEE7793000089901000848
:1001D0002DE9F05F0546002092469B46884606467C
:1001E000814640241BE0284641464746224600F00F
:1001F00061F953465A46C01A914110D31146184628
:10020000224600F048F92D1A67EB01084F462246B6
:100210000120002100F03FF917EB00094E41201E9C
:10022000A4F10104DFDC484631462A464346BDE8D6
:10023000F09FD2B201E000F8012B491EFBD27047BB
:100240000022F6E710B513460A4604461946FFF7A2
:10025000F0FF204610BD2DE9FE4F81EA030404F0B3
:10026000004421F0004100944FF0000B23F00043C4
:1002700050EA01045ED052EA03045BD0C3F30A548F
:10028000C1F30A552C44A4F2F3340194A0FB0254A8
:10029000C1F3130141F48011C3F3130343F480133A
:1002A00001FB024400FB034E840A970A44EA81548E
:1002B00047EA8357A4FB076802958D0A05FB07856B
:1002C0004FEA932C04FB0C542705029D4FEA065875
:1002D00047EA1637B5EB08056EEB070C870E920E52
:1002E00047EA811742EA8312A7FB0201B6EB0B0132
:1002F00064EB00042B0D43EA0C335E1844EB1C50F6
:10030000DA465146E7FB0201C5F313044FEA0B330B
:1003100043EA14534FEA0432019C43EA0603A4F172
:100320000C040294009CCDE900B400F019F903B06C
:10033000BDE8F08F00200146F9E72DE9F04D81EA94
:10034000030404F0004B21F0004514464FF0000A6E
:1003500023F0004150EA050220D054EA01021DD0EA
:10036000C5F30A570246C5F31303C1F31300C1F3E3
:100370000A5640F4801543F48013A7EB0608101BBF
:10038000D64608F2FD3873EB050002D308F10108E8
:1003900001E092185B41B8F1000F03DA002001463A
:1003A000BDE8F08D00204FF48011064684460EE033
:1003B000171B73EB050705D3121B63EB05030643FD
:1003C0004CEA010C49084FEA300092185B4150EAB0
:1003D0000107EDD152EA030012D082EA040083EA59
:1003E0000501084305D0101BAB4106D201220023B2
:1003F00006E000224FF0004302E06FF001025310CC
:100400001AEB06004CEB085110EB0A0041EB0B0114
:10041000BDE8F04D00F095B80EB540F233410291C1
:100420000021CDE900110A460B4600F099F803B00F
:1004300000BD01F0004330B421F0004150EA010258
:1004400006D00A0DA2F56072C1F31301002A02DC86
:1004500030BC00207047440F44EAC104C100E018DA
:1004600030BC00EBC25000F035B830B50B46014649
:1004700000202022012409E021FA02F59D4205D343
:1004800003FA02F5491B04FA02F52844151EA2F1ED
:100490000102F1DC30BD202A04DB203A00FA02F12F
:1004A000002070479140C2F1200320FA03F3194362
:1004B00090407047202A04DB203A21FA02F0002104
:1004C000704721FA02F3D040C2F120029140084364
:1004D000194670470029A8BF7047401C490008BF53
:1004E00020F00100704710B4B0FA80FC00FA0CF064
:1004F00050EA010404BF10BC704749B1CCF120049C
:1005000021FA04F411FA0CF118BF01212143084328
:10051000A3EB0C01CB1D4FEA00614FEA102042BF54
:10052000002010BC704700EBC35010440029A4BF4A
:1005300010BC7047401C490008BF20F0010010BCEF
:10054000704710B5141E73F1000408DA401C41F125
:10055000000192185B411A4301D120F0010010BD47
:100560002DE9F04D92469B4611B1B1FA81F202E0BD
:10057000B0FA80F220329046FFF78DFF04460F4616
:1005800040EA0A0041EA0B0153465A46084313D099
:10059000114653EA010019D0C8F140025046FFF756
:1005A00089FF05460E46504659464246FFF773FFFF
:1005B000084305D0012004E020463946BDE8F08D0F
:1005C0000020054346EAE0762C4337430A9863054A
:1005D000E40AA0EB08000022FD0A44EA47540A306E
:1005E00002D500200146E9E7010510196941DDE95E
:1005F000084500196941BDE8F04DA2E7064C074DDA
:1006000006E0E06840F0010394E8070098471034E2
:10061000AC42F6D3FFF7C4FD384600085846000840
:1006200000BFFEE7704710B504460B46204602F0B7
:100630003BFA184602F09AFC10BD72B600BFFEE706
:1006400010B52DED028B8AB001A802F0B7FA30B9CF
:10065000444890ED000A0AB0BDEC028B10BD00F0DA
:100660000BFA04464048006820B93F4804609FEDFB
:100670003F0AF0E73C480068201A00EE100AB8EE86
:10068000400ADFED3B0A60EE208A374804603948B3
:10069000008864281EDA9DED090A3748D0ED000A6B
:1006A00030EE200A80ED000A32480088401C3149B3
:1006B000088008460088642809D12F4890ED000A78
:1006C000DFED2E0A20EE200A2D4880ED000A9FED76
:1006D000270AC0E79DED090A2948D0ED000A30EE4F
:1006E000608A9FED280AB4EEC08AF1EE10FA0ADDA6
:1006F0009FED250AB4EEC08AF1EE10FA03D29FED09
:100700001B0AB0EE408A174890ED000A08EE280A4E
:1007100080ED000A90ED000ADFED1C0AB4EEE00A5D
:10072000F1EE10FA08DD90ED000ADFED190A30EE67
:10073000600A80ED000A11E00A4890ED000ADFED42
:10074000150AB4EEE00AF1EE10FA07D290ED000AB5
:10075000DFED0F0A30EE200A80ED000A014890ED2F
:10076000000A78E7D4000020D80000200000000034
:100770006F12833AE0000020E40000200AD7233CF7
:10078000DC000020CDCCCCBDCDCCCC3D0000344332
:100790000000B443000034C370B50446A56D00F0FA
:1007A0006BF9064694F83500022808D08020606571
:1007B00000BF002084F8340000BF012070BD206815
:1007C000006820F01600216808602068406920F069
:1007D000800021684861206C08B9A06C28B12068AD
:1007E000006820F00800216808602068006820F098
:1007F00001002168086010E000F03EF9801B052828
:100800000BD920206065032084F8350000BF00204C
:1008100084F8340000BF0320D0E72068006800F0AF
:1008200001000028E8D194F85C103F208840A860BF
:10083000012084F8350000BF002084F8340000BF98
:1008400000BFBBE7014691F83500022803D08020A5
:10085000486501207047052081F835000868006868
:1008600020F001000A6810600020F3E770B504462C
:1008700000F002F906462546681C10B104480078CD
:10088000054400BF00F0F8F8801BA842FAD370BD01
:1008900030000020F8B502460B4600250024002059
:1008A0000021C7E0012606FA01F51E6806EA0504E4
:1008B000AC4274D11E7906F00306012E04D01E79D5
:1008C00006F00306022E13D190684F000326BE40A7
:1008D000B0434F00DE68BE40304390605068012650
:1008E0008E40B0431E79C6F300168E4030435060F0
:1008F0001E7906F00306032E09D0D0684F000326A8
:10090000BE40B0434F009E68BE403043D0601E7969
:1009100006F00306022E13D1CF0802F1200656F886
:1009200027004E07F70E0F26BE40B0434F07FF0EBD
:100930001E69BE403043CF0802F1200646F827006A
:1009400010684F000326BE40B0431E7906F0030630
:100950004F00BE40304310605E6806F44036002E03
:1009600067D000BF00260096344E366846F48046B5
:10097000324F3E603E46366806F48046009600BF21
:1009800000BF2F4E8F0856F827008E07370F0F260F
:10099000BE40B0432B4EB24202D1002615E048E0E3
:1009A000294EB24201D101260FE0284EB24201D1B8
:1009B00002260AE0264EB24201D1032605E0254E6A
:1009C000B24201D1042600E007268F073F0FBE4048
:1009D00030431B4E8F0846F827001F4E3068A04357
:1009E0005E6806F4801606B120431B4E3060361D4B
:1009F0003068A0435E6806F4001606B12043164E28
:100A0000361D3060144E361F3068A0435E6806F411
:100A1000003606B12043104E361F3060361F306856
:100A2000A0435E6806F4803606B120430A4E083EB5
:100A30003060491C1029FFF435AFF8BD443802403E
:100A40000838014000000240000402400008024053
:100A5000000C024000100240083C014002461369AD
:100A60000B400BB1012000E0002070470AB181610A
:100A700001E00B0483617047014800687047000083
:100A80002800002070B504460CB9012070BD94F810
:100A90003D0028B9002084F83C00204600F010FBFF
:100AA000242084F83D002068006820F001002168BF
:100AB00008602068006840F40040216808602068F1
:100AC000006820F400402168086000F0DFFC054663
:100AD0005C496068884206D85B48854201D20120A3
:100AE00007E0002005E05948854201D2012000E0DE
:100AF0000020012800D1C9E75548B5FBF0F6206871
:100B0000406820F03F003043216848604D496068EC
:100B1000884201D8701C07E04FF4967070434FF480
:100B20007A71B0FBF1F0401C2168096A21F03F01A5
:100B300008432168086243496068884214D8681EE7
:100B400061684900B0FBF1F0401CC0F30B000428C1
:100B500001D204203DE0681E61684900B0FBF1F05D
:100B6000401CC0F30B0034E0A06838B9681E61680F
:100B700001EB4101B0FBF1F0401C0AE0681E616826
:100B800001EBC10202EB0111B0FBF1F0401C40F49B
:100B90008040C0F30B0008B901201AE0A06848B9F2
:100BA000681E616801EB4101B0FBF1F0401CC0F32D
:100BB0000B000CE0681E616801EBC10202EB011141
:100BC000B0FBF1F0401CC0F30B0040F4804040F457
:100BD00000402168C9694CF6FF72914308432168BF
:100BE000C861D4E9070108432168096821F0C00100
:100BF000084321680860D4E9031008432168896824
:100C000048F2FF329143084321688860D4E9050126
:100C100008432168C96821F0FF0108432168C860C2
:100C20002068006840F0010021680860002020640E
:100C3000202084F83D000020206384F83E0000BF9F
:100C400024E70000A086010080841E0000093D000A
:100C500040420F002DE9FC5F04460F46904699463E
:100C6000DDE90CAB0E9EFFF707FF054694F83D004B
:100C7000202870D119230122B5492046009501F0A2
:100C8000BEFD10B10220BDE8FC9F00BF94F83C00FF
:100C9000012801D10220F6E7012084F83C0000BFC2
:100CA0002068006800F0010028B92068006840F062
:100CB0000100216808602068006820F40060216855
:100CC0000860222084F83D00402084F83E00002087
:100CD0002064C4F824A0A4F82AB0608D20859D4823
:100CE000E0624B46424639462046CDE9006501F0B8
:100CF00033FC08B10120C6E7208D88B900BF002071
:100D0000019020684069019020688069019000BFCF
:100D100000BF2068006840F400702168086040E06F
:100D2000208D012818D12068006820F48060216897
:100D3000086000BF00200190206840690190206891
:100D40008069019000BF00BF2068006840F4007017
:100D50002168086025E0F8E0208D022816D120687F
:100D6000006820F48060216808602068006840F412
:100D700000602168086000BF002001902068406981
:100D8000019020688069019000BF0AE000BF002048
:100D9000019020684069019020688069019000BF3F
:100DA00000BFC3E0208D03287ED8208D012815D1F7
:100DB0002A463146204601F0FEFD08B1012062E7D7
:100DC00020680069616A0870606A401C6062208D5A
:100DD000401E2085608D401E6085A7E0208D022882
:100DE0002AD1334600225C492046009501F007FDD8
:100DF00008B1012047E72068006840F400702168CE
:100E0000086020680069616A0870606A401C60625E
:100E1000208D401E2085608D401E60852068006901
:100E2000616A0870606A401C6062208D401E2085E7
:100E3000608D401E608579E0334600224649204699
:100E4000009501F0DCFC08B101201CE72068006877
:100E500020F480602168086020680069616A087079
:100E6000606A401C6062208D401E2085608D401E9F
:100E700060853346002238492046009501F0BFFCCA
:100E800008B10120FFE62068006840F40070216886
:100E9000086020680069616A0870606A401C6062CE
:100EA000208D401E208500E010E0608D401E608592
:100EB00020680069616A0870606A401C6062208D69
:100EC000401E2085608D401E60852FE02A463146F9
:100ED000204601F070FD08B10120D4E620680069C9
:100EE000616A0870606A401C6062208D401E208527
:100EF000608D401E608520684069C0F38000A8B105
:100F0000208D032805D12068006820F480602168C6
:100F1000086020680069616A0870606A401C60624D
:100F2000208D401E2085608D401E6085208D00280C
:100F30007FF438AF202084F83D00002084F83E0084
:100F400000BF84F83C0000BF9DE602209BE6000045
:100F5000020010000000FFFF040001002DE9FC5F0B
:100F600004460F4690469946DDE90CAB0E9EFFF70E
:100F700083FD054694F83D0020287DD119230122E8
:100F80004D492046009501F03AFC10B10220BDE821
:100F9000FC9F00BF94F83C00012801D10220F6E735
:100FA000012084F83C0000BF2068006800F00100C8
:100FB00028B92068006840F00100216808602068B6
:100FC000006820F4006021680860212084F83D005A
:100FD000402084F83E0000202064C4F824A0A4F837
:100FE0002AB0608D20853548E0624B46424639463E
:100FF0002046CDE9006501F05FFB08B10120C6E79E
:1010000031E02A463146204601F01AFD50B1206CED
:10101000042805D12068006840F400702168086049
:101020000120B4E7606A007821680861606A401CAA
:101030006062208D401E2085608D401E6085206886
:101040004069C0F3800070B1208D60B1606A0078A3
:1010500021680861606A401C6062208D401E208506
:10106000608D401E6085208D0028CAD12A463146F9
:10107000204601F091FB00E01CE050B1206C0428F8
:1010800005D12068006840F40070216808600120E4
:101090007DE72068006840F4007021680860202027
:1010A00084F83D00002084F83E0000BF84F83C0036
:1010B00000BF6CE702206AE7020010000000FFFF9B
:1010C00010B586B00446142101A8FFF7B9F81B49F2
:1010D000206888422FD100BF002000901848006887
:1010E00040F00200164908600846006800F002005F
:1010F000009000BF00BF4FF440700190122002909A
:101100000120039004900420059001A90D48FFF7E9
:10111000C1FB00BF0020009009481030006840F477
:1011200000100749103108600846006800F40010FC
:10113000009000BF00BF06B010BD0000005400408A
:10114000303802400004024003480068034909782F
:101150000844014908607047280000203000002042
:1011600010B50D48006840F400700B49086008464F
:10117000006840F4806008600846006840F48070B1
:101180000860032000F0A6F80F2000F007F800F038
:101190002BF8002010BD0000003C024070B5044652
:1011A0000E4800784FF47A71B1FBF0F00C490968F1
:1011B000B1FBF0F5284600F02FFC08B1012070BD0E
:1011C000102C07D200222146501E00F045F8054899
:1011D000046001E00120F2E70020F0E73000002089
:1011E000340000202C00002008B500BF0020009033
:1011F0000E48006840F480400C49086008460068CA
:1012000000F48040009000BF00BF00BF00200090AD
:10121000081F006840F08050091F086008460068F9
:1012200000F08050009000BF00BF08BD443802406D
:101230000146084600280DDB00BF00BF00F01F0379
:1012400001229A4043099B0003F1E023C3F80021E7
:1012500000BF00BF00BF70472DE9F05F80460D461C
:101260001646002702F032FC074639462A46334626
:1012700001F00700C0F1070ABAF1040F02D94FF0DC
:10128000040A01E0C0F1070AD14600F1040ABAF1EC
:10129000070F02D24FF0000A01E0A0F1030AD44682
:1012A0004FF0010A0AFA09FAAAF1010A0AEA020A47
:1012B0000AFA0CFA4FF0010B0BFA0CFBABF1010B25
:1012C0000BEA030B4AEA0B042146404602F006FCF7
:1012D000BDE8F09F00BF00F00702064B19684FF60B
:1012E000FF031940044B0B4343EA0221014B1960F1
:1012F00000BF70470CED00E00000FA0570B5044631
:101300000D460CB9012070BD5848006800F0070078
:10131000A84209D255490D700846006800F0070040
:10132000A84201D00120EEE7207800F00200022858
:101330001DD1207800F00400042805D14C48006835
:1013400040F4E0504A490860207800F0080008287E
:1013500005D14748006840F460404549086044486A
:10136000006820F0F000A168084341490860207837
:1013700000F00100A8B36068012807D13C48083894
:101380000068C0F34040B8B90120BCE7606802289B
:1013900002D06068032807D1354808380068C0F3D8
:1013A000406048B90120AEE7314808380068C0F312
:1013B000400008B90120A6E72D48006820F003008E
:1013C000616808432A490860FFF756FB064609E0B2
:1013D000FFF752FB801B41F28831884202D903207B
:1013E00091E707E02248006800F00C006168B0EB6C
:1013F000810FEDD11D48006800F00700A84209D90F
:101400001A490D700846006800F00700A84201D094
:10141000012078E7207800F00400042807D1144860
:10142000006820F4E050E168084311490860207822
:1014300000F00800082808D10D48006820F460403A
:10144000216940EAC1000A49086000F03FF80849F4
:101450000968C1F30311074A515CC8400649086096
:1014600006480068FFF79AFE00204CE7003C024067
:101470000838024020460008340000202C000020DC
:1014800001480068704700003400002000B5FFF7F5
:10149000F7FF04490968C1F38221034A515CC8403F
:1014A00000BD0000083802403046000800B5FFF7D4
:1014B000E7FF04490968C1F34231034A515CC8405F
:1014C00000BD000008380240304600082DE9F04712
:1014D000002400250026A1462548006800F00C00E5
:1014E00020B1042805D008283AD105E0DFF884901F
:1014F00039E0DFF8849036E01D48001F006800F0F6
:101500003F041B48001F006800F4800078B11A48AF
:101510001749091F0968C1F38811A0FB0170014632
:10152000224600233846FEF753FE05460EE01148DA
:101530000F49091F0968C1F38811A0FB017001461A
:10154000224600233846FEF743FE05460848001FA2
:101550000068C0F30140401C4600B5FBF6F902E00C
:10156000DFF8109000BF00BF4846BDE8F0870000DC
:10157000083802400024F40040787D01F8B50446A4
:101580000CB90120F8BD207800F00100002874D0CB
:10159000F948006800F00C0004280DD0F6480068F7
:1015A00000F00C00082813D1F348001F006800F475
:1015B0008000B0F5800F0BD1EF4808380068C0F309
:1015C0004040002859D06068002856D10120D9E752
:1015D00000BF6068B0F5803F08D1E7480838006870
:1015E00040F48030E449083908601EE06068B0F5D6
:1015F000A02F0DD1E0480838006840F48020DE4973
:10160000083908600846006840F4803008600CE043
:10161000D9480838006820F48030D7490839086074
:101620000846006820F48020086000BF606890B120
:10163000FFF722FA054606E0FFF71EFA401B642872
:1016400001D903209EE7CC4808380068C0F3404029
:101650000028F1D011E0FFF70FFA054606E0FFF78A
:101660000BFA401B642801D903208BE7C2480838D5
:101670000068C0F340400028F1D1207800F002005B
:1016800002285FD1BC48006800F00C0058B1BA488D
:10169000006800F00C0008281CD1B748001F006843
:1016A00000F48000B0B9B44808380068C0F34000C6
:1016B00020B1E068012801D0012063E7AE48083876
:1016C000006820F0F800216940EAC100AA49083901
:1016D000086037E0E06800B30120A8490860FFF720
:1016E000CBF9054606E0FFF7C7F9401B022801D9F0
:1016F000032047E7A04808380068C0F340000028EE
:10170000F1D09D480838006820F0F800216940EACF
:10171000C10099490839086014E000209749086021
:10172000FFF7AAF9054606E0FFF7A6F9401B0228D5
:1017300001D9032026E7904808380068C0F340002C
:101740000028F1D1207800F0080008282CD1606929
:10175000A8B101208A490860FFF78EF9054606E026
:10176000FFF78AF9401B022801D903200AE78248C3
:101770006C300068C0F340000028F1D014E0002075
:101780007F490860FFF778F9054606E0FFF774F92E
:10179000401B022801D90320F4E677486C3000682A
:1017A000C0F340000028F1D1207800F004000428A4
:1017B00070D1002770483830006800F0805090B930
:1017C00000BF002000906C483830006840F0805026
:1017D0006949383108600846006800F08050009080
:1017E00000BF00BF01276748006800F48070B0B9EF
:1017F0006448006840F4807062490860FFF73CF973
:10180000054606E0FFF738F9401B022801D90320FE
:10181000B8E65C48006800F480700028F2D000BF91
:10182000A068012808D154486830006840F00100E1
:101830005149683108601DE0A06805280DD14E4867
:101840006830006840F004004B4968310860084681
:10185000006840F0010008600CE04748683000680C
:1018600020F001004449683108600846006820F013
:101870000400086000BFA068A8B1FFF7FDF80546A6
:1018800009E0FFF7F9F8401B41F28831884202D99C
:10189000032077E626E0384868300068C0F340004F
:1018A0000028EED013E0FFF7E7F8054608E0FFF761
:1018B000E3F8401B41F28831884201D9032061E6F8
:1018C0002D4868300068C0F340000028EFD1012F98
:1018D00007D129483830006820F080502649383137
:1018E000086000BFA069002845D02348006800F0C8
:1018F0000C0008285DD0A069022845D100201F49AE
:101900000866FFF7B9F8054606E0FFF7B5F8401B93
:10191000022801D9032035E6174808380068C0F3CB
:1019200040600028F1D1D4E907010843616A40EA28
:1019300081110122A06AC2EB500041EA00412C2033
:10194000005D41EA00600C49091F086001200B4955
:101950000866FFF791F8054606E0FFF78DF8401B93
:10196000022801D903200DE6034808380068C0F3B7
:1019700040600028F1D049E00838024000004742AA
:10198000800E474200700040002021490866FFF7A2
:1019900073F8054606E0FFF76FF8401B022801D9EF
:1019A0000320EFE51B480068C0F340600028F2D137
:1019B0002CE0A069012800D1E4E51648001D066866
:1019C000A069012820D006F48001E06981421BD182
:1019D00006F03F01206A814216D147F6C0703040C0
:1019E000616AB0EB811F0FD106F440310122A06A79
:1019F000C2EB5000B1EB004F06D106F070612C2015
:101A0000005DB1EB006F01D00120BBE50020B9E51E
:101A1000000047420038024070B504462546681E63
:101A2000B0F1807F01D301200FE0681E4FF0E0216C
:101A300048610F214FF0FF3002F050F800204FF0C6
:101A4000E021886107200861002070BD30B50246A2
:101A50000B4600BF92F83C00012801D1022030BDA6
:101A6000012082F83C0000BF022082F83D0010688F
:101A700044681068816824F0700418680443106892
:101A80004460144D1068A84213D01068B0F1804F24
:101A90000FD0114D1068A8420BD0104D1068A8420D
:101AA00007D00F4D1068A84203D00E4D1068A84211
:101AB00005D121F080015868014310688160012040
:101AC00082F83D0000BF002082F83C0000BF00BF4C
:101AD000C5E700000000014000040040000800408D
:101AE000000C00400040014010B504460CB9012034
:101AF00010BD94F83D0028B9002084F83C00204631
:101B000000F026F8022084F83D00211D206801F035
:101B1000CBFA012084F8460000BF84F83E00012182
:101B20003F200155402001554120015500BF00BF15
:101B3000012084F8420043200155442001554520EE
:101B4000015500BF012084F83D000020D0E70000CF
:101B500008B5154A016891420FD100BF00210091DC
:101B60001249096841F00201104A116011460968E2
:101B700001F00201009100BF15E00D4A0168914299
:101B800011D100BF002100910849091D096841F4E5
:101B90008021064A121D11601146096801F4802156
:101BA000009100BF00BF08BD000400404038024063
:101BB00000480140014691F83D00012801D0012074
:101BC0007047022081F83D00164B0868984213D0F8
:101BD0000868B0F1804F0FD0134B086898420BD0C3
:101BE000124B0868984207D0114B0868984203D0FE
:101BF000104B086898420CD10868806800F0070212
:101C0000062A0CD00868006840F001000B681860D4
:101C100005E00868006840F001000B6818600020CB
:101C2000CEE7000000000140000400400008004032
:101C3000000C0040004001402DE9F04104460D46F3
:101C4000002700BF94F83C00012802D10220BDE823
:101C5000F081012084F83C0000BF022084F83D00A0
:101C60002068866826F0770626F47F46206886601E
:101C70002868502833D00CDC202850D004DC002801
:101C80004BD0102851D149E0302849D040284CD1C0
:101C900039E060282DD0702807D0B0F5805F03D0E0
:101CA000B0F5005F41D10DE041E0D5E902136A686B
:101CB000206801F060FA2068866846F077062068A0
:101CC000866034E0D5E902136A68206801F053FAAF
:101CD0002068806840F480402168886027E0EA68D6
:101CE0006968206801F018FB5021206801F04EFA65
:101CF0001DE0EA686968206801F021FB6021206826
:101D000001F044FA13E0EA686968206801F004FB16
:101D10004021206801F03AFA09E000BF00BF00BF8F
:101D20002968206801F032FA01E0012700BF00BFF6
:101D3000012084F83D0000BF002084F83C0000BF73
:101D4000384684E710B586B00446142101A8FEF792
:101D500077FA1F492068884238D100BF00200090E0
:101D60001C48006840F001001A49086008460068F5
:101D700000F00100009000BF00BF00BF00200090F5
:101D80000846006840F0020008600846006800F05D
:101D90000200009000BF00BFC0200190022002900E
:101DA0000020039004900220059001A90A48FEF744
:101DB00071FD032001900220029000200390049006
:101DC0000220059001A90548FEF764FD06B010BD8C
:101DD000000400403038024000000240000402408D
:101DE0002DE9F04104460D461646002700BF94F841
:101DF0003C00012802D10220BDE8F081012084F8D6
:101E00003C0000BF36B1042E1BD0082E31D00C2E62
:101E10005ED145E02946206801F0C2F9206880695A
:101E200040F00800216888612068806920F0040083
:101E30002168886120688069296908432168886170
:101E400048E02946206801F0DBF92068806940F409
:101E50000060216888612068806920F480602168C2
:101E6000886120688069296940EA012021688861C9
:101E700030E02946206801F0F7F92068C06940F099
:101E800008002168C8612068C06920F0040021684A
:101E9000C8612068C069296908432168C86119E0E0
:101EA0002946206801F014FA2068C06940F40060F7
:101EB0002168C8612068C06920F480602168C86119
:101EC0002068C069296940EA01202168C86101E0F1
:101ED000012700BF00BF00BF002084F83C0000BF06
:101EE000384689E710B504460CB9012010BD94F8B6
:101EF0003D0028B9002084F83C00204600F025F879
:101F0000022084F83D00211D206801F0CDF8012059
:101F100084F8460000BF84F83E0001213F200155AF
:101F2000402001554120015500BF00BF012084F829
:101F3000420043200155442001554520015500BF72
:101F4000012084F83D000020D0E7704770B50446BA
:101F50000D4615B994F83E000BE0042D02D13F2048
:101F6000005D06E0082D02D14020005D01E0412027
:101F7000005D012801D0012070BD1DB9022084F848
:101F80003E000EE0042D03D102213F20015508E060
:101F9000082D03D102214020015502E002214120F9
:101FA000015501222946206801F0D4F81D49206816
:101FB000884201D1012000E0002028B12068406C57
:101FC00040F400402168486416492068884213D0D4
:101FD0002068B0F1804F0FD01349206888420BD0A1
:101FE00012492068884207D011492068884203D0EE
:101FF0001049206888420CD12068806800F00706EC
:10200000062E0CD02068006840F0010021680860AE
:1020100005E02068006840F00100216808600020A9
:10202000AAE7000000000140000400400008004052
:10203000000C004000400140704770472DE9F84F08
:102040000446206805682068C668206847694FF024
:102050000009CA4605F00F09B9F1000F0AD105F0D1
:10206000200038B106F0200020B1204601F017FA18
:10207000BDE8F88FB9F1000F7CD007F0010018B966
:1020800006F49070002875D005F0010030B106F418
:10209000807018B1606C40F00100606405F00400CD
:1020A00030B107F0010018B1606C40F002006064CC
:1020B00005F0020030B107F0010018B1606C40F08B
:1020C0000400606405F0080048B106F0200010B973
:1020D00007F0010018B1606C40F008006064606CAB
:1020E000002846D005F0200028B106F0200010B1ED
:1020F000204601F0D4F920684069C0F3801A606C72
:1021000000F0080010B9BAF1000F2DD0204601F000
:1021100080F92068406900F04000402820D100BFCD
:1021200000BF2168143151E8001F21F040002168F0
:10213000143141E80002002AF3D100BFE06B50B136
:102140007F48E16B0865E06BFEF77CFB88B1E06BD4
:10215000016D88470DE02046FFF76FFF09E009E0B9
:102160002046FFF76AFF04E02046FFF766FF0020E5
:1021700060647DE7206B012878D105F0100000280D
:1021800074D006F010000028FAD000BF00200090A4
:1021900020680068009020684068009000BF00BF81
:1021A0002068406900F04000402870D1E06B006872
:1021B00040681FFA80F8B8F1000F58D0A08D404554
:1021C00055DDA4F82E80E06BC069B0F5807F43D068
:1021D00000BF00BF21680C3151E8001F21F480705E
:1021E00021680C3141E80002002AF3D100BF00BF92
:1021F00000BF2168143151E8001F21F0010021685F
:10220000143141E80002002AF3D100BF00BF00BF33
:102210002168143151E8001F21F040002168143179
:1022200041E80002002AF3D100BF202084F84200D8
:102230000020206300BF00BF21680C3151E8001F5F
:1022400021F0100021680C3141E80002002AF3D18E
:1022500000BFE06BFEF7A0FA02206063A08DE28D64
:10226000801A81B22046FFF7E7FE0EE052E0A08D13
:1022700040450AD1E06BC069B0F5807F05D10220EE
:102280006063A18D2046FFF7D7FEF1E6FFE7A08D42
:10229000E18D401A1FFA80F8E08DD0B3B8F1000F3D
:1022A00037D000BF00BF21680C3151E8001F21F476
:1022B000907021680C3141E80002002AF3D100BF80
:1022C00000BF00BF2168143151E8001F21F0010058
:1022D0002168143141E80002002AF3D100BF202018
:1022E00084F842000020206300BF00BF21680C3149
:1022F00051E8001F21F0100021680C3141E8000274
:10230000002AF3D100BF0220606341462046FFF758
:1023100093FEADE605F0800030B106F0800018B104
:10232000204601F051FAA3E605F0400030B106F076
:10233000400018B1204601F0A2F899E600BF97E6E8
:102340000134000810B504460CB9012010BDA06985
:1023500000B100E000BF94F8410028B9002084F8E3
:102360004000204600F02AF8242084F8410020682C
:10237000C06820F400502168C860204601F00EF9C2
:102380002068006920F49040216808612068406955
:1023900020F02A00216848612068C06840F400509D
:1023A0002168C86000206064202084F8410084F81F
:1023B00042000020606300BFC8E7000010B586B08F
:1023C0000446142101A8FDF73BFF1F4920688842FD
:1023D00038D100BF002000901C48006840F0100079
:1023E0001A4908600846006800F01000009000BF1D
:1023F00000BF00BF0020009014481438006840F06F
:1024000001001249143908600846006800F0010014
:10241000009000BF00BF4FF4C06001900220029006
:1024200000200390022004900720059001A908488D
:10243000FEF730FA002211462520FEF70DFF252079
:10244000FEF7F6FE06B010BD001001404438024011
:102450000000024070472DE9F84F04460E4617462B
:1024600099464FF0000A94F84100202850D106B157
:1024700017B90120BDE8F88F00206064212084F89E
:102480004100FEF7F9FA8246A784E784A068B0F518
:10249000805F04D1206910B90025B04602E03546BE
:1024A0004FF000081EE05346002280212046CDF860
:1024B000009001F0B9F920B1202084F841000320F8
:1024C000D8E745B9B8F80000C0F3080021684860B3
:1024D00008F1020803E02878216848606D1CE08C50
:1024E000401EE084E08C0028DDD1534600224021CC
:1024F0002046CDF8009001F097F920B1202084F813
:1025000041000320B6E7202084F841000020B1E715
:102510000220AFE7704700BFFEE701460868406948
:10252000C0F38020B0B16FF480600A685061002071
:102530000863202081F83D00002081F83E00086CEF
:1025400040F00400086400BF002081F83C0000BF98
:10255000012070470020FCE72DE9F84304460F46B0
:1025600015469946DDE908862068006840F48060D9
:10257000216808602068006840F480702168086065
:10258000434600224FF001112046009600F037F933
:1025900060B12068006800F48070B0F5807F02D1DF
:1025A0004FF4007020640320BDE8F88307F0FE00BC
:1025B00021680861334642463E49204600F07EF9D4
:1025C00008B10120F0E700BF0020009020684069BA
:1025D000009020688069009000BF00BF32464146ED
:1025E000204600F02DFA50B1206C042805D1206857
:1025F000006840F40070216808600120D4E7B9F158
:10260000010F03D1E8B22168086117E0C5F3072084
:102610002168086132464146204600F011FA50B167
:10262000206C042805D12068006840F400702168FF
:1026300008600120B8E7E8B22168086132464146E7
:10264000204600F0FDF950B1206C042805D1206827
:10265000006840F40070216808600120A4E7206849
:10266000006840F4807021680860434600224FF003
:1026700001112046009600F0C2F858B120680068A9
:1026800000F48070B0F5807F02D14FF400702064B8
:10269000032089E7F8B240F0010021680861334661
:1026A00042460449204600F009F908B101207BE7C1
:1026B000002079E7020001002DE9F843044688462E
:1026C00015469946DDE908672068006840F4807087
:1026D00021680860334600224FF001112046009720
:1026E00000F08DF860B12068006800F48070B0F5EB
:1026F000807F02D14FF4007020640320BDE8F8838E
:1027000008F0FE00216808613B4632462149204618
:1027100000F0D4F808B10120F0E700BF00200090DD
:1027200020684069009020688069009000BF00BF69
:102730003A463146204600F083F950B1206C042817
:1027400005D12068006840F400702168086001200D
:10275000D4E7B9F1010F03D1E8B22168086117E0AD
:10276000C5F30720216808613A463146204600F04B
:1027700067F950B1206C042805D12068006840F446
:102780000070216808600120B8E7E8B2216808619C
:102790000020B3E70200010070B504460D4616465E
:1027A00025E02046FFF7B9FE08B1012070BD681C86
:1027B000E8B1FEF761F9801BA84200D8BDB92068D6
:1027C0004069C0F3800090B900202063202084F885
:1027D0003D00002084F83E00206C40F02000206482
:1027E00000BF002084F83C0000BF0120DEE7206825
:1027F0004069C0F380000028D3D00020D6E72DE93F
:10280000F04104460D4617461E46DDF8188038E0B4
:10281000701CA8B3FEF730F9A0EB0800B04200D856
:1028200076BBC5F3074001280AD120684069A9B2E8
:102830000840A9B2884201D101200BE0002009E044
:1028400020688069A9B20840A9B2884201D101205C
:1028500000E00020B84214D100202063202084F83A
:102860003D00002084F83E00206C40F020002064F1
:1028700000BF002084F83C0000BF0120BDE8F081CB
:10288000FFE7C5F3074001280AD120684069A9B2D3
:102890000840A9B2884201D101200BE0002009E0E4
:1028A00020688069A9B20840A9B2884201D10120FC
:1028B00000E00020B842ABD00020DFE72DE9F04176
:1028C00004460D4616461F4658E020684069C0F38E
:1028D0008020E8B12068006840F40070216808603A
:1028E0006FF480602168486100202063202084F814
:1028F0003D00002084F83E00206C40F0040020647D
:1029000000BF002084F83C0000BF0120BDE8F0813A
:10291000701C90B3FEF7B0F8C01BB04200D866BB85
:10292000C5F3074001280AD120684069A9B20840D0
:10293000A9B2884201D101200BE0002009E0206803
:102940008069A9B20840A9B2884201D1012000E003
:10295000002090B900202063202084F83D00002052
:1029600084F83E00206C40F02000206400BF00206E
:1029700084F83C0000BF0120C8E7FFE7C5F307402B
:1029800001280AD120684069A9B20840A9B288424A
:1029900001D101200BE0002009E020688069A9B284
:1029A0000840A9B2884201D1012000E0002000289F
:1029B0008BD00020AAE770B504460D46164637E0D6
:1029C00020684069C0F30010A0B16FF010002168CA
:1029D000486100202063202084F83D00002084F816
:1029E0003E00206C206400BF002084F83C0000BF43
:1029F000012070BDFEF740F8801BA84200D8BDB989
:102A000020684069C0F3801090B900202063202026
:102A100084F83D00002084F83E00206C40F0200047
:102A2000206400BF002084F83C0000BF0120E0E7E4
:102A300020684069C0F380100028C1D00020D8E78A
:102A400070B504460D46164625E02046FFF765FDA5
:102A500008B1012070BD681CE8B1FEF70DF8801BBD
:102A6000A84200D8BDB920684069C0F3C01090B931
:102A700000202063202084F83D00002084F83E00E0
:102A8000206C40F02000206400BF002084F83C004F
:102A900000BF0120DEE720684069C0F3C0100028B5
:102AA000D3D00020D6E70000642800DD642010F1B8
:102AB000640F01DA6FF06300002807DD0D49096833
:102AC000486300210B4A1268916311E0002808DA7C
:102AD0000021084A126851634142064A1268916314
:102AE00006E00021034A12685163024A12689163AA
:102AF000704700004001002000B585B0642001212E
:102B000004AA0B46CDE9002102907522D0212A4863
:102B1000FEF7A0F810B1002005B000BD9DF8100030
:102B2000682801D00020F7E70320039064200121EA
:102B300003AA0B46CDE9002102906B22D0211E484A
:102B4000FEF70CFA082003906420012103AA0B462B
:102B5000CDE9002102901B22D0211748FEF7FEF993
:102B6000002003906420012103AA0B46CDE9002137
:102B700002901C22D0211048FEF7F0F904200390A7
:102B80006420012103AA0B46CDE9002102901922FD
:102B9000D0210948FEF7E2F90320039064200121C7
:102BA00003AA0B46CDE9002102901A22D021024847
:102BB000FEF7D4F90120AFE7EC0000202DE9F04743
:102BC00088B00446FFF798FF18B9002008B0BDE8A8
:102BD000F0870A200E2104AA0123CDE900210290EA
:102BE0003B22D0213C48FEF735F808B10020EDE744
:102BF0009DF811009DF8101040EA01200FFA80FAAC
:102C00009DF813009DF8121040EA012005B29DF8CE
:102C100015009DF8141040EA012006B29DF8190035
:102C20009DF8181040EA012007B29DF81B009DF89E
:102C30001A1040EA01200FFA80F89DF81D009DF857
:102C40001C1040EA01200FFA80F9A4F800A065806A
:102C5000A680E780A4F80880A4F80A9000EE10AAE5
:102C6000B8EEC00ADFED1D0A20EE200A84ED030A4B
:102C700000EE105AB8EEC00ADFED180A20EE200A66
:102C800084ED040A00EE106AB8EEC00ADFED130A04
:102C900020EE200A84ED050A00EE107AB8EEC00A94
:102CA000DFED0F0A20EE200A84ED060A00EE108AFE
:102CB000B8EEC00ADFED0A0A20EE200A84ED070A0A
:102CC00000EE109AB8EEC00ADFED050A20EE200AE9
:102CD00084ED080A012079E7EC000020000080382C
:102CE0002D237A3C00B587B0142102A8FDF7A8FA7D
:102CF00000BF002001903848006840F004003649C9
:102D000008600846006800F00400019000BF00BFA2
:102D100000BF002001900846006840F08000086075
:102D20000846006800F08000019000BF00BF00BFAF
:102D3000002001900846006840F001000860084645
:102D4000006800F00100019000BF00BF00BF00203C
:102D500001900846006840F00200086008460068DC
:102D600000F00200019000BF00BF002207211B48B5
:102D7000FDF77CFE002280211948FDF777FE072031
:102D8000029001200390002004900220059002A9E7
:102D90001248FDF77FFD0820029000200390049068
:102DA00002A90E48FDF776FD402002900020039016
:102DB000049002A90A48FDF76DFD802002900120D1
:102DC0000390002004900220059002A90448FDF71A
:102DD00061FD07B000BD0000303802400000024035
:102DE0000004024010B50B480B4908600B484860CE
:102DF000002109488160C1604FF4804101610021D8
:102E000041618161C1610162FDF73CFE08B1FDF7DE
:102E100014FC10BD00540040EC000020A08601000E
:102E200010B50A480A490860632048600021084834
:102E300081604FF6FF71C160002101618161FEF781
:102E400053FE08B1FDF7F9FB10BD0000004801403A
:102E50008801002000B58DB0002009900A900B90E9
:102E60000C90079008901C216846FDF7E9F92C4862
:102E70002C49086042F20F704860002129488160A7
:102E80006321C160002101618161FEF72DFE08B15F
:102E9000FDF7D3FB4FF48050099009A92148FEF7B4
:102EA000CBFE08B1FDF7C9FB1E48FFF71BF808B1C0
:102EB000FDF7C3FB00200790089007A91948FEF70B
:102EC000C5FD08B1FDF7B9FB60200090002001901E
:102ED00002900490002269461248FEF781FF08B173
:102EE000FDF7ABFB042269460E48FEF779FF08B1F7
:102EF000FDF7A3FB082269460A48FEF771FF08B1F7
:102F0000FDF79BFB0C2269460648FEF769FF08B1F6
:102F1000FDF793FB0348FEF715FF0DB000BD000061
:102F2000000400404001002010B50B480B49086028
:102F30004FF416504860002108488160C16001616B
:102F40000C21416100218161C161FFF7FBF908B1EA
:102F5000FDF773FB10BD000000100140D001002000
:102F600000BFFEE700BFFEE770470000642800DDF9
:102F7000642010F1640F01DA6FF06300002807DDB0
:102F80000D490968C86300210B4A1268116411E0F9
:102F9000002808DA0021084A1268D1634142064A33
:102FA0001268116406E00021034A1268D163024AE4
:102FB000126811647047000040010020704710B58E
:102FC000FEF7C2F810BD000000B593B0302107A88D
:102FD000FDF736F9142102A8FDF732F900BF0020F1
:102FE00001902348006840F080502149086008465D
:102FF000006800F08050019000BF00BF00BF0020BB
:1030000001901C48006840F440401A490860084696
:10301000006800F44040019000BF00BF012007900D
:103020000004089002200D9041050E910C210F9193
:1030300060211091022111910421129107A8FEF73D
:103040009DFA08B1FDF7F9FA0F20029002200390D3
:10305000002004904FF4805005900020069003213A
:1030600002A8FEF74BF908B1FDF7E7FA13B000BD6F
:1030700040380240007000400348006840F470008F
:10308000014908607047000088ED00E00021054A12
:103090001268516200BF03490968496A8142FAD344
:1030A000704700008801002010B50268224B98424A
:1030B0000BD0B0F1804F08D0204B984205D0204B68
:1030C000984202D01F4B984203D122F070024B6805
:1030D0001A43194B984214D0B0F1804F11D0174BBE
:1030E00098420ED0164B98420BD0164B984208D0FF
:1030F000154B984205D0154B984202D0144B98427C
:1031000003D122F44072CB681A4322F080034C6949
:1031100043EA04028B68C3620B688362064B9842E1
:1031200001D10B690363036843F0040303600123C7
:103130004361026010BD0000000001400004004037
:1031400000080040000C00400040014000440140E5
:103150000048014030B501F01F05012404FA05F3D1
:10316000046A9C430462046A01F01F0502FA05F533
:103170002C43046230BD30B50C46816821F47F4198
:1031800042EA032525432943816030BD0A46816810
:1031900021F0700142F0070319438160704700007D
:1031A00030B5026A056A25F0010505624368846945
:1031B00024F0700424F003040D682C4322F0020272
:1031C0008D682A430D4DA84206D100BF22F00802A7
:1031D000CD682A4322F00402084DA84207D123F407
:1031E000807323F400734D692B438D692B43436037
:1031F00084614D684563026230BD000000000140FB
:1032000030B5026A056A25F01005056243688469D5
:1032100024F4E04424F440740D6844EA052422F0C8
:1032200020028D6842EA05120E4DA84207D100BF68
:1032300022F08002CD6842EA051222F04002094DD8
:10324000A84209D123F4806323F400634D6943EA63
:1032500085038D6943EA8503436084614D68856316
:10326000026230BD0000014030B5026A056A25F4F3
:10327000807505624368C46924F0700424F0030477
:103280000D682C4322F400728D6842EA05220F4D2E
:10329000A84207D100BF22F40062CD6842EA0522AD
:1032A00022F48062094DA84209D123F4805323F40B
:1032B00000534D6943EA05138D6943EA05134360E2
:1032C000C4614D68C563026230BD0000000001406A
:1032D00030B5036A056A25F4805505624468C26901
:1032E00022F4E04222F440720D6842EA052223F4FF
:1032F00000538D6843EA0533064DA84204D124F4F7
:1033000080444D6944EA85144460C2614D68056497
:10331000036230BD0000014030B50B461446026A1E
:10332000056A25F001050562816921F0F00141EA95
:10333000041122F00A021A438161026230BD30B5E5
:103340000B461446026A056A25F01005056281697C
:1033500021F4704141EA043122F0A00242EA031252
:103360008161026230BD000070B52DED028B8AB024
:1033700005469FED1D0AB0EE408A0024002610E0AD
:1033800001A8FFF71BFC38B19DED090A30EE080AD1
:10339000B0EE408A601C84B20220FDF767FA701C10
:1033A00086B2AE42ECDB24B900200AB0BDEC028B41
:1033B00070BD00EE104AB8EE400AC8EE000A0B4895
:1033C000C0ED000A9FED080A094880ED000AFDF7EC
:1033D00053FB08490860642007490880074880EDCE
:1033E000008A0120E1E7000000000000DC0000206E
:1033F000D4000020D8000020E0000020E4000020DD
:1034000070B50446A56B0020E8852846FEF715FE3A
:1034100070BD00BF00BF02680C3252E8002F22F4DA
:10342000907102680C3242E80013002BF3D100BF08
:1034300000BF00BF0268143252E8002F22F00101E1
:103440000268143242E80013002BF3D100BF016B75
:1034500001290ED100BF00BF02680C3252E8002FD4
:1034600022F0100102680C3242E80013002BF3D165
:1034700000BF202180F8421000210163704710B581
:1034800004462068C06820F040002168C860202001
:1034900084F841002046FFF73DF8002010BDF8B544
:1034A00004460025002694F84200222873D1A06823
:1034B000B0F5805F0BD1206948B9A66A20684068E2
:1034C000C0F308003080A06A801CA06214E0A56AE6
:1034D000A068B0F5805F03D0A06828B9206918B94A
:1034E00020684068287004E02068406800F07F0091
:1034F0002870A06A401CA062E08D401E80B2E0856A
:10350000002846D12068C06820F020002168C860EB
:103510002068C06820F480702168C8602068406915
:1035200020F0010021684861202084F8420000203A
:103530006063206B012826D10020206300BF00BFFC
:1035400021680C3151E8001F21F0100021680C3176
:1035500041E80002002AF3D100BF2068006800F0B3
:10356000100010280AD100BF0020009020680068D9
:10357000009020684068009000BF00BFA18D2046E9
:10358000FEF75AFD02E02046FEF764FF0020F8BD7A
:1035900001E00020FBE70220F9E700002DE9F84FE9
:1035A00004462068006920F44050E168084321681F
:1035B00008612169A068084361690843E16908431B
:1035C00000902068C06849F20C6188430099084364
:1035D0002168C8602068406920F44070A1690843F0
:1035E0002168486176492068884203D0754920687F
:1035F000884203D1FDF75AFF814602E0FDF746FFFE
:103600008146E069B0F5004F6CD102206168A0FBF3
:10361000015003461920A9FB007001462A4638468E
:10362000FCF7D6FD6421B0FBF1F04FEA001A02204E
:103630006168A0FB01510B461920A9FB00712A46C5
:103640003846FCF7C5FD834602206168A0FB0150A7
:1036500003461920A9FB00712A463846FCF7B8FD3D
:103660006421B0FBF1F000EBC00101EB0010ABEB0B
:103670008000322101EBC0006421B0FBF1F000F0CA
:10368000F8000AEB400A02206168A0FB01500346E3
:103690001920A9FB007001462A463846FCF798FD20
:1036A000834602206168A0FB015003461920A9FB54
:1036B00000712A463846FCF78BFD6421B0FBF1F01F
:1036C00000EBC00101EB0010ABEB8000322101EBFD
:1036D000C0006421B0FBF1F000F007005044216805
:1036E00088606AE004206168A0FB0150034619204D
:1036F000A9FB007001462A463846FCF769FD824660
:1037000004206168A0FB015003461920A9FB00704A
:1037100001462A463846FCF75BFD6421B0FBF1F018
:1037200000EBC00101EB0010AAEB8000322101EB9D
:1037300000106421B0FBF1F000F0F00A0420616891
:10374000A0FB017003461920A9FB00513A46284608
:10375000FCF73EFD6421B0FBF1F00AEB001A0420F7
:103760006168A0FB01510B461920A9FB00712A4694
:103770003846FCF72DFD834604206168A0FB01500C
:1037800003461920A9FB007001462A463846FCF77B
:103790001FFD6421B0FBF1F000EBC00101EB001054
:1037A000ABEB8000322101EB00106421B0FBF1F0A3
:1037B00000F00F00504421688860BDE8F88F0000D9
:1037C0000010014000140140014691F841002128F9
:1037D00028D18868B0F5805F0BD1086948B90A6ABA
:1037E0001088C0F308000B685860086A801C0862E3
:1037F00005E00B6A581C086218780B685860C88C82
:10380000401E80B2C88458B90868C06820F08000A3
:103810000B68D8600868C06840F040000B68D8604A
:10382000002070470220FCE72DE9F84304460D46CE
:1038300017469846089E31E0701C70B3FDF71CF9DE
:10384000A0EB0800B04200D816B90320BDE8F88309
:103850002068C06800F00400F8B1802D1ED0402D13
:103860001CD020680068C0F3C000B0B100BF0020C9
:10387000009020680068009020684068009000BFB9
:1038800000BF2046FFF7C5FD0820606400BF002090
:1038900084F8400000BF0120D8E7FFE720680068F7
:1038A0002840A84201D1012000E00020B842C3D046
:1038B0000020CBE710B50248FEF7C0FB10BD0000AA
:1038C000D001002000BFFEE710B52DED088BF0EE13
:1038D000409AFCF7B5FEB0EE40AA9FED390AF0EE33
:1038E00040AA9FED380AB0EE40BA9FED370AF0EEDD
:1038F00040BA5FE0FCF7A4FE30EE4A0AB0EE408A20
:103900009FED320AB4EEC08AF1EE10FA05DD9FEDAC
:10391000300A38EE400AB0EE408A9FED2E0AB4EE2F
:10392000C08AF1EE10FA05D29FED290A38EE000A9E
:10393000B0EE408A79EEC88AB0EEE80AF7EE000AE7
:10394000B4EEE00AF1EE10FA04D200210846FCF7CA
:103950006AFE30E02AEEA80A78EEEB0AB0EE409A52
:103960000BEE209AF0EE68BA9FED1B0AB4EEC09AF7
:10397000F1EE10FA03DD9FED180AB0EE409A9FEDCC
:10398000170AB4EEC09AF1EE10FA03D29FED130AB3
:10399000B0EE409AB1EE490ABDEEC00A10EE101A20
:1039A000BDEEC90A10EE100AFCF73DFE0A20FCF736
:1039B0005DFF00BF9EE700BFBDEC088B10BD00009F
:1039C0009A99993FCDCC4C3E000000000000344352
:1039D0000000B443000034C30000A0420000A0C2B5
:1039E00000B52DED068B89B0FCF72AFEB0EE40AA9B
:1039F000B0EE040AF0EE409A3C2008EE900A46E051
:103A0000FCF71EFE30EE4A0AB0EE408A9FED230A14
:103A1000B4EEC08AF1EE10FA05DD9FED210A38EE12
:103A2000400AB0EE408A9FED1F0AB4EEC08AF1EE64
:103A300010FA05D29FED1A0A38EE000AB0EE408A5D
:103A40009FED190A30EE489AB8EEE80A09EE690AC5
:103A5000BDEEC00A10EE101AB8EEE80A09EE290A07
:103A6000BDEEC00A10EE100AFCF7DDFD6846FFF758
:103A7000A5F8BDF90200B0F5FA6F04DA0021084696
:103A8000FCF7D1FD04E00A20FCF7F0FE00BFB7E729
:103A900000BF09B0BDEC068B00BD00000000344340
:103AA0000000B443000034C3000000000FB4054B15
:103AB00010B503A9044A029800F034F810BC5DF870
:103AC00014FB00002D400008E800002002480068B8
:103AD000C0F30220704700000CED00E010B5002894
:103AE00004DB0A07130E054A135406E00A07140EF6
:103AF000034A00F00F031B1FD45410BD00E400E084
:103B000018ED00E002E008C8121F08C1002AFAD12F
:103B100070477047002001E001C1121F002AFBD14D
:103B2000704700002DE9FF4F8BB088460546002600
:103B300006E025280BD0DDE90D1290476D1C761CA0
:103B400028780028F5D10FB03046BDE8F08F00246A
:103B5000A146A2460122AE4900E0044315F8013F08
:103B6000203B02FA03F00842F7D128782A2810D027
:103B70006FF02F022878A0F13001092915D809EB40
:103B8000890102EB410144F0020400EB01096D1CC4
:103B9000F0E758F8041B5FEA010903D544F4005428
:103BA000C9F1000944F002046D1C28782E2817D1B1
:103BB00015F8010F44F004042A280ED06FF02F02EC
:103BC0002878A0F1300109290AD80AEB8A0102EB12
:103BD000410100EB010A6D1CF2E758F804AB6D1CC3
:103BE00028786C280FD006DC4C2817D068280DD018
:103BF0006A2814D104E0742810D07A280FD10DE07F
:103C000044F400140AE044F4801401E044F4401445
:103C10006978814202D104F580146D1C6D1C2878EE
:103C2000692865D006DC00288DD0632827D0642859
:103C300006D15DE06E2808D073282AD0752877D089
:103C4000DDE90D129047761CE0E0C4F30250022833
:103C500009D003280DD0D8F8001004280DD00E602C
:103C600008F10408D2E0D8F80010F217C1E90062A8
:103C7000F6E7D8F800100E80F2E70E70F0E718F8BB
:103C8000041B8DF8001000208DF80100EB46012088
:103C900003E058F804BB4FF0FF3061074FF0000716
:103CA00001D40AE07F1C57450DDA8742FADB1BF886
:103CB00007100029F6D106E07F1C8742FCDB1BF8C9
:103CC00007100029F8D1DDE90D23A9EB0700814693
:103CD000214600F0B1F83044C61904E0DDE90D12C8
:103CE0001BF8010B90477F1EF8D22146484688E01A
:103CF00058F8040BC4F302514FF00A0B032900D10A
:103D000000B2042900D140B2002802DA40422D213D
:103D100002E0210505D52B218DF82410012104E0B6
:103D200006E0E10710D02021F6E708AF089113E084
:103D300058F8040BC4F302514FF00A0B032900D1C9
:103D400080B2042900D1C0B20021EEE75946FCF749
:103D50008CFB303107F8011D0028F7D1ADEB0700CF
:103D600000F1200B600702D524F4803401E04FF00D
:103D7000010ADA4502DDAAEB0B0000E000208246D2
:103D800000EB0B0108980144A9EB01000A90E00345
:103D900006D4DDE90D2321460A9800F04DF80644CB
:103DA0004FF0000908E009A911F80900DDE90D123A
:103DB000904709F10109761C08998945F3DBE00376
:103DC0000CD5DDE90D2321460A9800F035F80644AC
:103DD00004E0DDE90D1230209047761CBAF10001B5
:103DE000AAF1010AF5DC05E0DDE90D1217F8010B77
:103DF0009047761CBBF10001ABF1010BF4DC0A9893
:103E00002146DDE90D2300F005F806446D1C97E618
:103E1000092801002DE9F041044600251E461746F9
:103E2000880404D405E039462020B0476D1C641E88
:103E3000F9D52846BDE8F0812DE9F041044600257A
:103E40001E469046C80301D5302700E0202788048D
:103E500004D505E041463846B0476D1C641EF9D5CF
:103E60002846BDE8F081000010B52DED088B012239
:103E700080212A48FCF7FAFD1E20FFF707F90022EF
:103E800080212648FCF7F2FD002025490968486298
:103E900041F2883409E022480068406AA04204D90F
:103EA0009FED200ABDEC088B10BD40211B48FCF79C
:103EB000D5FD0028EFD0002019490968486246F274
:103EC000A81407E016480068406AA04202D99FED96
:103ED000150AE7E740211148FCF7C0FD0128F1D0A1
:103EE0000F490968486AFCF797FA41EC1B0B9FEDF4
:103EF0000E0B53EC102BFCF7AEF941EC1A0B9FEDB7
:103F00000C0B53EC102BFCF718FA41EC190BFCF7D7
:103F100090FA08EE100AB0EE480AC3E70004024027
:103F20008801002000C079449CC420B07268A13F81
:103F3000000000000000004010B59FED020AFFF7EE
:103F4000C3FC10BD0000B4C210B505480068A0F164
:103F50001901034800681E30FCF765FB10BD000026
:103F60003C00002010B5034801680068FCF75BFBCB
:103F700010BD00003C00002010B59FED020AFFF7C5
:103F8000A3FC10BD0000B44210B503480168491DF0
:103F90000068FCF748FB10BD3C00002010B503484A
:103FA00001680068401DFCF73EFB10BD3C0000208E
:103FB00010B50348016800680F30FCF734FB10BDF2
:103FC0003C00002010B5034801680F310068FCF781
:103FD0002AFB10BD3C00002010B505490968A1F17D
:103FE0000F00034909681431FCF71DFB10BD0000E8
:103FF0003C00002010B505480068A0F10F010348FF
:1040000000681430FCF70FFB10BD00003C000020DE
:1040100010B505490968A1F11900034909681E3165
:10402000FCF701FB10BD00003C00002013B50C465E
:104030004FF6FF73012269460248FEF70CFA00981A
:104040001CBD0000D001002010B50446082C7DD214
:10405000DFE804F004182C4054687D91002201210F
:104060005048FCF703FD002202214E48FCF7FEFCFD
:10407000002204214B48FCF7F9FC08214948FCF7D1
:10408000EDFC10BD002201214648FCF7EFFC0022A8
:1040900002214448FCF7EAFC012204214148FCF7D4
:1040A000E5FC08213F48FCF7D9FCEAE700220121A2
:1040B0003C48FCF7DBFC012202213A48FCF7D6FC25
:1040C000002204213748FCF7D1FC08213548FCF7D1
:1040D000C5FCD6E7002201213248FCF7C7FC0122CB
:1040E00002213048FCF7C2FC012204212D48FCF7D4
:1040F000BDFC08212B48FCF7B1FCC2E701221146A8
:104100002848FCF7B3FC002202212648FCF7AEFC4D
:10411000002204212348FCF7A9FC08212148FCF7D0
:104120009DFCAEE7012211461E48FCF79FFC0022D1
:1041300002211C48FCF79AFC012204211948FCF7D3
:1041400095FC08211748FCF789FC9AE727E0012233
:1041500011461448FCF78AFC012202211148FCF7A1
:1041600085FC002204210F48FCF780FC08210D4843
:10417000FCF774FC85E7012211460A48FCF776FC3F
:10418000012202210748FCF771FC012204210548A5
:10419000FCF76CFC08210348FCF760FC71E74FF06A
:1041A000FF306EE70000024010B58AB001A8FEF7AC
:1041B00005FDBDF90640B4F57A6F02DC14F57A6F9F
:1041C00021DA0A20FCF752FB01A8FEF7F7FCBDF943
:1041D0000640B4F57A6F02DC14F57A6F13DA01A8A1
:1041E000FEF7ECFCBDF90640B4F57A6F02DC14F57D
:1041F0007A6F08DA00210846FCF715FA6420FCF70C
:1042000035FBFFF7EDFB0AB010BD00008AB0FCF7EC
:10421000A7FFFEF7D9FEFEF765FDFEF7E3FDFEF70B
:1042200019FEFEF781FEFEF7FBFD00216A48FDF74F
:104230008DFE04216848FDF789FE08216648FDF7D8
:1042400085FE0C216448FDF781FE6FF00100634993
:10425000096808616148FDF7ADFC6420FFF784F848
:104260005FA0FFF723FCB6E0FFF7FEFD614880ED9D
:10427000000A90ED000AF2EE0E0AB4EEE00AF1EE4A
:1042800010FA24D20A20FCF7F1FA5A4890ED000AFD
:10429000F2EE0E0AB4EEE00AF1EE10FA17D20120A7
:1042A0005549087000210846FCF7BDF96420FCF769
:1042B000DDFA9FED520AFFF707FB00210846FCF7E5
:1042C000B2F96420FCF7D2FA00204B49087001A82B
:1042D000FEF774FC98B19DED040A494880ED000A90
:1042E0009DED050A474880ED000A9DED060A464807
:1042F00080ED000AFCF7A4F9444880ED000A3D482F
:1043000090ED000ABDEEC00A10EE101A40A0FFF7B3
:10431000CDFB00240CE02046FFF796FE41490855EE
:104320000846025DC4EB04113FA0FFF7BFFB641C0D
:10433000082CF0DB344890ED000ABDEEC00A10EE08
:10434000103A304890ED000ABDEEC00A10EE102A77
:104350002B4890ED000ABDEEC00A10EE101A38A0EE
:10436000FFF7A4FB264890ED000ABDEEC00A10EE50
:10437000101A37A0FFF79AFB224890ED000ABDEE15
:10438000C00A10EE101A38A0FFF790FB1E4890EDFF
:10439000000ABDEEC00A10EE101A39A0FFF786FB26
:1043A0001A4890ED000ADFED3C0A20EE200ABDEE2F
:1043B000C00A10EE101A39A0FFF778FB0E480078FB
:1043C00040B900F0F5F8044600F0D4F8FFF7ECFE31
:1043D00000F072F800BF47E740010020880100208C
:1043E0006B6B6B6B6B6B6B6B6B6B6B6B6B6B6B6B1D
:1043F0006B0000000400002038000020000034435F
:104400000C000020100000201400002018000020E4
:104410005B646973706C61792C302C38302C2530DA
:1044200033645D001D0000205B646973706C61790A
:104430002C25642C3130302C25645D2C00000000CC
:104440005B706C6F742C25642C25642C25645D00D6
:104450005B646973706C61792C302C302C41583A54
:10446000253035645D0000005B646973706C6179B0
:104470002C302C32302C41593A253035645D000007
:104480005B646973706C61792C302C34302C475A22
:104490003A253035645D00000000C8425B646973F2
:1044A000706C61792C302C36302C5A5F414E474C61
:1044B000453A253035645D0010B58AB001A8FEF795
:1044C0007DFBBDF9044028480078F8B914F57A6FEF
:1044D00048DA0A20FCF7CAF901A8FEF76FFBBDF91C
:1044E000044014F57A6F3DDA0A20FCF7BFF901A801
:1044F000FEF764FBBDF9044014F57A6F32DA03204D
:10450000194908701E20194908602BE016480078E8
:10451000032827D11648844224DD4042844221DA10
:104520000A20FCF7A3F901A8FEF748FBBDF90440F7
:104530000F48844216DD4042844213DA0A20FCF719
:1045400095F901A8FEF73AFBBDF9044008488442FA
:1045500008DD4042844205DA0020034908703C200F
:10456000024908600AB010BD380000203C0000205D
:1045700048F4FFFF70B5054600240CE00A4850F8E7
:104580003400A84205D1084901EBC40148688047BE
:1045900070BD601C84B2054800888442EEDBFFF7E2
:1045A000E1FC00BFF4E7000040000020D000002044
:1045B00010B50020FFF748FD164900FB01F401206B
:1045C000FFF742FD144901FB00440220FFF73CFDC8
:1045D000124901FB00440320FFF736FD42F210713F
:1045E00001FB00440420FFF72FFD4FF47A7101FB1B
:1045F00000440520FFF728FD642101FB004406204C
:10460000FFF722FD0A2101FB00440720FFF71CFDF4
:10461000204410BD8096980040420F00A086010003
:104620000000000000000000010203040607080962
:1046300000000000010203045846000800000020AA
:10464000EC000000043B000844470008EC00002098
:104650002C050000143B00080000000000000000D2
:10466000000000000000000000000000000000004A
:10467000000000000000000000000000000000003A
:104680000000000010000000010000000024F40001
:10469000000000003C00000057040000393F000803
:1046A000672B0000393F00087086A900793F000899
:1046B000588AA900793F000810270000893F0008A8
:1046C000E80300009D3F000864000000B13F0008BF
:1046D0004C040000B13F0008A0860100C53F00085F
:1046E000B0AD0100C53F000840420F00D93F0008AF
:1046F000E0C81000D93F00080A000000F53F00089C
:104700006E000000F53F00088096980011400008F8
:10471000C0D8A700114000080B000000493F000866
:1047200001000000493F00081200000000000000E6
:104730000000000000000000000000000000000079
:044740000000000075
:040000050800019955
:00000001FF
